:10000000D2EF05F00000000000EF00F0000000005B
:0A0010000000000000000000F3D71C
:10001C000B840BAE19EF00F0010E036E026A016A3D
:0A002C00006A0A360232FF0E1200CD
:080036000AAE029E000E12004A
:10003E000B820BAE29EF00F00368026801680068BE
:08004E000A360232FF0E120017
:0E005600026A016A006A086A036A000E12005C
:10006400086A096A000E07620364B7EF00F00250E1
:1000740006180A6E075003267E0ED8A048EF00F03B
:10008400035ED8B0BBEF00F04CEF00F0035ED8A0E5
:10009400BFEF00F0028E068E02C00EF001C00BF01E
:1000A40000C00DF000500402F4CF0CF00150050222
:1000B400F4CF00F0F3CF08F00402F3500C26F45010
:1000C4000822000E00220D500502F3500C26F450B5
:1000D4000822000E002202500402F3500826F450B5
:1000E400002202500502016A000E0122F35000268C
:1000F400F45001220D500602F3500826F450002259
:10010400026A000E012202220B500602F35000265E
:10011400F4500122000E02220E500602F350012672
:10012400F450022202BE9FEF00F00836003601367A
:1001340002360306D8B4BFEF00F0B2EF00F0D88067
:10014400800E08640030000E002201220222D8A092
:10015400B2EF00F0023201320032034ABBEF00F08A
:100164000AAE029E000EC1EF00F0010E72DFC1EF75
:1001740000F0020E62DFC1EF00F0040E4DDF12004A
:100184000A6A0350D8A40A800750D8A40A820A50E5
:10019400D8B425EF01F0030AD8B4DEEF00F00AB0BA
:1001A400D9EF00F006AE23EF01F021EF01F002AE2B
:1001B40021EF01F023EF01F00250800B0A6E029E42
:1001C4000650800B069E0A18D8B4EFEF00F00A50D0
:1001D400D8B421EF01F023EF01F00750035CD8B449
:1001E400F9EF00F0D8A015EF01F01BEF01F0065075
:1001F400025CD8B403EF01F0D8A015EF01F01BEFB7
:1002040001F00550015CD8B40DEF01F0D8A015EF52
:1002140001F01BEF01F00450005CD8B425EF01F0AD
:10022400D8B01BEF01F00A52D8B423EF01F021EF4C
:1002340001F00A52D8B421EF01F023EF01F0D88085
:0E0244001200D8901200D880D8841200120048
:100252000C6A0E6A0250D8A442EF01F001C002F00B
:1002620000C001F0006A0E860250D8A442EF01F0ED
:1002720001C002F0016A0E960E880250D8B454EF03
:1002820001F00E50035ED8A4D8A059EF01F0D89027
:1002920002BE5EEF01F0003601360236032E49EF50
:1002A20001F059EF01F0010E0C6ED4DE61EF01F0A6
:1002B200020E0C6EB2DE61EF01F0040E0C6EBADEBD
:0202C200120028
:1002C400A1C004F0A2C005F004C002F005C003F010
:1002D400044A052AA3C000F0A4C001F00001A34B06
:1002E400A42B00C0E9FF01C0EAFF02C0E1FF03C084
:1002F400E2FFEECFE6FF02C0E9FF03C0EAFFEE52E1
:0E03040001E0E2D7A1C000F0A2C001F012009B
:100312000D6A086A0050D8B4000C04180A6E0ABEAE
:100322000D1E0B6A04AE02D0041E042A00AE02D0D7
:10033200001E002A005004100A6E0ABE1FD004508C
:10034200085E003600340836045008260036060ED1
:100352000C6E00340836045000B0085E00A0082677
:1003620000360C2EF6D700A008260BB015D00DAE25
:10037200000C001E002A081E082A000C04AE09D038
:1003820000BE04D00050086E006AF1D7006A002A4D
:10039200000C001E0B2AD3D7082A0450085CD8A4EC
:0E03A200E6D7086A002A00AEE2D7FF0C120070
:0C03B0000E0E0D6E0D2EFED70000120088
:0803BC000B6A0B86FF0E120014
:0E03C400ACB202D00000FCD7A1C0ADFF120009
:1003D2000D0E0001A16FF5DF0A0E0001A16FF1DF22
:0203E200120007
:1003E4006B6A1A0E0D6E0D2EFED7000083B00DD071
:1003F400350E0D6E0D2EFED783A002D0010E6B6E4E
:0C0404001A0E0D6E0D2EFED70000120027
:10041000036A080E035C30E283B001D0FDD7130EEF
:100420000D6E0D2EFED70000000083B011D00350DA
:100430000708006E00C001F0010E006E015004E0DC
:1004400000360090FF0FFBD7001E0050021612D09E
:1004500003500708006E00C001F0010E006E01504D
:1004600004E000360090FF0FFBD70050021283A07B
:0E04700001D0FDD7032ACDD702C000F0120044
:10047E00959083902F0E0C6EBF0E0D6E0D2EFED727
:10048E000C2EFCD7000000008380130E0D6E0D2E77
:0A049E00FED7000000009580120058
:1004A8000900F5CFE6FF0006FBE10106F9E11200BD
:1004B800C40E0001836F030E846FA10E856F000EBA
:1004C800866FFF0E876FFF0E886F000E896F000E14
:1004D8008A6FFF0E8F6FFF0E906F000E916F000EE8
:1004E800926FFF0E8B6FFF0E8C6F000E8D6F000EDC
:1004F8008E6FAC8A900EAB6E948E949C9EAA03D09D
:08050800AECF00F0FBD712009A
:100510000050086E0150006E016A026A036A0B6A9D
:100520000C6A960E036E0A6A00C001F008C000F063
:08053000086A026A8EDE120067
:10053800C26AC00EC212491C006E0050C116C18C9E
:10054800C18E93C000F0003600900036009000364F
:1005580000900050C212C28027DFC284C2A401D01A
:10056800FDD7C4CF01F0006AC3500012000E01127B
:04057800C29012001B
:10057C0000019F6BA06B93C09BF094C09CF095C046
:10058C009DF096C09EF09E51FF0A08E19D51FF0A16
:10059C0005E19C51FF0A02E19B51FF0A0CE197C057
:1005AC00A1F098C0A2F0450EA36F000EA46F84DEDC
:1005BC00030E006EE9D1010E996F9DAF0ED0800E27
:1005CC009D19006E00C09DF0992B97C0E1FF98C05B
:1005DC00E2FF2D0EE66E974B982B000E006E9E19C7
:1005EC0008E100509D1905E100509C1902E19B5156
:1005FC00000A0BE197C0A1F098C0A2F01C0EA36FEB
:10060C00000EA46F59DE006ABFD19E51FF0A08E1AB
:10061C009D51000A05E19C51000A02E19B51000A20
:10062C000CE197C0A1F098C0A2F0180EA36F000EB9
:10063C00A46F42DE99C000F0A7D1000E046E000E2C
:10064C00056E000E066E7F0E076E9BC000F09CC000
:10065C0001F09DC002F09EC003F08EDD010ED8B0FB
:10066C00000E006E00521BE09BC000F09CC001F01D
:10067C009DC002F09EC003F0000E046E000E056ECD
:10068C00200E066E820E076EE7DC00C09BF001C0E8
:10069C009CF002C09DF003C09EF0A007CED7000EC8
:1006AC00046E000E056E200E066E820E076E9BC049
:1006BC0000F09CC001F09DC002F09EC003F05CDD18
:1006CC00000ED8B0010E006E00521BE09BC000F073
:1006DC009CC001F09DC002F09EC003F0CD0E046ED4
:1006EC00CC0E056E4C0E066E7B0E076EB5DC00C094
:1006FC009BF001C09CF002C09DF003C09EF0A02BAB
:10070C00CED7FF0E9B15086EFF0E9C15096E7F0E43
:10071C009D150A6E000E9E150B6E08C004F009C0E4
:10072C0005F00AC006F00BC007F00436049005363D
:10073C0006360736000E9B15006E000E9C15016EDA
:10074C00000E9D15026EFF0E9E15036E00C09BF0F1
:10075C0001C09CF002C09DF003C09EF004509B11A0
:10076C00006E05509C11016E06509D11026E0750D3
:10077C009E11036E00C09BF001C09CF002C09DF066
:10078C0003C09EF07F0E9E5D006E00C09AF0010EBD
:10079C009E6F00C004F09BC000F09CC001F09DC097
:1007AC0002F09EC003F0045007E0003600900136C2
:1007BC0002360336FF0FF8D700C09BF001C09CF047
:1007CC0002C09DF003C09EF097C0E1FF98C0E2FF0D
:1007DC009E51300FE66E974B982B800EA019006E31
:1007EC00800E010A005C08E3800E060A006E800E83
:1007FC00A019005C01E30AD097C0E1FF98C0E2FFAA
:10080C002E0EE66E974B982B010E9F6F060E9A6F6D
:10081C009A51000A54E09E6B9BC000F09CC001F002
:10082C009DC002F09EC003F00036009001360236E7
:10083C000336003600900136023603369B510026F3
:10084C009C5101229D5102229E51032200C09BF01B
:10085C0001C09CF002C09DF003C09EF09BC000F054
:10086C009CC001F09DC002F09EC003F000360090C9
:10087C0001360236033600C09BF001C09CF002C06A
:10088C009DF003C09EF097C0E1FF98C0E2FF9E511F
:10089C00300FE66E974B982B9F51000A0EE1A00784
:1008AC00A051000A0AE197C0E1FF98C0E2FF2E0EAA
:1008BC00E66E974B982B010E9F6F9A07A9D7FF0EE8
:1008CC009725E96EFF0E9821EA6EEE50300A05E18D
:1008DC00010E975F000E985BF2D7FF0E9725E96E1D
:1008EC00FF0E9821EA6EEE502E0A04E1010E975F7E
:1008FC00000E985BA051000A41E097C0E1FF98C040
:10090C00E2FF650EE66E974B982B800EA019006ED9
:10091C00800E000A005C0BE297C0E1FF98C0E2FF7A
:10092C002D0EE66E974B982BA0510008A06FA0C01F
:10093C009AF0800E090A006E800EA019005C0EE27F
:10094C000A0E046E9AC000F0DEDC97C0E1FF98C07E
:10095C00E2FF0050300FE66E974B982B0A0E046E98
:10096C009AC000F0D0DC08C000F097C0E1FF98C03E
:10097C00E2FF0050300FE66E974B982B97C0E1FFCB
:0A098C0098C0E2FFE66A006A12005C
:100996000001966B93C0E9FF94C0EAFFEECF95F095
:1009A6009551000A0EE095C0A1F009DD0001962BD5
:1009B60096519325E96E000E9421EA6EEECF95F0DE
:0409C600EFD7120055
:1009CA0093C004F094C005F004C0E9FF05C0EAFF33
:1009DA00EE5203E0044A052AF7D704C002F005C024
:1009EA0003F0044A052A95C000F096C001F0000100
:1009FA00954B962B00C0E9FF01C0EAFF02C0E1FF58
:100A0A0003C0E2FFEECFE6FF02C0E9FF03C0EAFF40
:100A1A00EE5201E0E2D793C000F094C001F0120058
:100A2A000450000A12E10550000A0FE10650000ABC
:100A3A000CE10750000A09E1FF0E006EFF0E016E7D
:100A4A007F0E026EFF0E036EA7D0086A096A07506E
:100A5A00D8B4C0EF05F00350D8B4C4EF05F0025083
:100A6A0006180A6E028E068E0E6A02C008F001C0CF
:100A7A000CF000C00DF004500D5E0550D8A0053CE6
:100A8A000C5E0650D8A0063C085E086A0C6A0D6A1D
:100A9A00D8A057EF05F0D89002320132003208325E
:100AAA00010E0E6E0750035ED8A064EF05F07E0EAD
:100ABA000E240326D8B0C9EF05F06AEF05F07E0EC2
:100ACA000E240326D8A0CEEF05F0180E0B6E0D36B5
:100ADA000C3608360036013602360E360450005EF1
:100AEA000550D8A0053C015E0650D8A0063C025E1F
:100AFA0006340E120EA085EF05F00D8090EF05F07A
:100B0A00045000260550D8B0053C01260650D8B03E
:100B1A00062802260D900B2E6CEF05F0B6EF05F0B5
:100B2A00D8900036013602360E360450005E055063
:100B3A00D8A0053C015E0650D8A0063C025E0634E9
:100B4A000E10010B0D26D8B00C2AD8B4082AD8A446
:100B5A00B6EF05F008320C320D32032AD8B4C9EFC9
:100B6A0005F00AAE089E0850026E0C50016E0D5038
:100B7A00006ED1EF05F0010E1CDCD1EF05F0020E7C
:100B8A002BEC00F0D1EF05F0040E1FEC00F0D1EFD2
:0A0B9A0005F0080E0EEC00F012004A
:100BA400C2EC06F0FF0E926E800E946E800EC16E43
:100BB400330EAF6EAC847EDC9592040E0B6E0C0E7D
:100BC4000C6E330E0D6E0D2EFED70C2EFCD70B2E95
:100BD400FAD70000000051DC03DC6B50010AD8A4F2
:100BE400B2D014DC00C06AF011DC00C06CF00EDC82
:100BF40000C06EF00BDC00C06DF008DC00C068F0D3
:100C0400000E696E6C506A24006E016A000E0122A7
:100C14006E500026000E01226D500026000E0122A7
:100C2400FF0E0014026E01C003F0000E031669509B
:100C3400031802E102506818D8A485D06AC05EF097
:100C4400000E5F6E5EC000F05FC001F05FDC00C0AC
:100C540093F001C094F002C095F003C096F04A0EE0
:100C64000001976F000E986F87DC4A0E936F000E99
:100C7400946F150E956F000E966FA5DE4A0E936F56
:100C8400000E946F86DEE9EC01F00001936B52DCF8
:100C94003DDC00C064F001C065F002C066F003C032
:100CA40067F0000E046E000E056E7A0E066E870E57
:100CB400076E32EC00F0000E046EC00E056E7F0E5F
:100CC400066E880E076EAFDE00C060F001C061F0F2
:100CD40002C062F003C063F000C093F001C094F05E
:100CE40002C095F003C096F06F0E0001976F000EDE
:100CF400986F42DC6F0E936F000E946F2E0E956FFB
:100D0400000E966F60DE6F0E936F000E946F41DEDF
:100D1400E9EC01F0819293828392959281A20AD0A8
:100D240083821E0E0001936F000E946F32DEE9EC95
:100D340001F009D08392310E0001936F000E946F7D
:0A0D440028DEE9EC01F039D7FFD7F3
:100D840010EE15F0350E006E010E016E4E0EF66E6D
:0E0D94000D0EF76E000EF86E54EC02F0120019
:030D4E002025005D
:040D5100494E4600C1
:020D550030006C
:100D57004D6F74696F6E20446574656374656400D4
:030D670020430026
:100D6A004D6F74696F6E206E6F742044657465638D
:040D7A007465640038
:040D7E004E614E0074
:010D82000F61
:020000040030CA
:0D000100220F0EFF0181FF0FC00FE00F4026
:00000001FF
